:100000000C942A000C9447000C9447000C94470071
:100010000C9447000C9447000C9447000C94470044
:100020000C9447000C9447000C9447000C94470034
:100030000C9447000C9447000C9447000C94470024
:100040000C9447000C9447000C9447000C94470014
:100050000C94470011241FBECFE5D4E0DEBFCDBF16
:1000600010E0A0E6B0E0E0E9F6E002C005900D92F5
:10007000A63FB107D9F710E0A6EFB0E001C01D928E
:10008000AE3FB107E1F70E949B020C9446030C942B
:1000900000001DBC1CBC82E19AE79BBD8ABD1FBC51
:1000A0008CE08EBD08B604FEFDCF80E188BF0895C8
:1000B000982FBB9A80E064E670E00E94F6026150DF
:1000C0006CBF84E683BF08959C0140E050E060E28D
:1000D00071EA87E090E00E9409032150304086E8F1
:1000E00080BD88E18AB930BD29B908955D9BFECFF6
:1000F0008CB908955F9BFECF8CB10895AC0120E0D0
:1001000001C02F5FE22FF0E0DB01AE0FBF1F8C912B
:10011000E40FF51F80838823A1F70895AC0120E048
:10012000322F3F5FFA01E20FF11D8081882311F029
:10013000232FF6CF90E0FB01E90FF11D80819F5F37
:100140008823C9F7391791F40DC0E22FF0E03197F9
:10015000DA01AE0FBF1FE60FF71F9C918081981741
:1001600029F42150222389F781E0089580E0089541
:10017000AC0120E0922F9F5FFA01E20FF11D808118
:10018000882311F0292FF6CF822F08959C018A3001
:10019000910528F4805D8093F60041E02BC040E09B
:1001A000E42FF0E0EA50FF4FC9016AE070E00E94DE
:1001B000E202805D8083C9016AE070E00E94E20291
:1001C0009B014F5F6115710559F7842F8695A6EF46
:1001D000B0E0E42FF0E0EB50FF4F282F30E02A0F83
:1001E0003B1F05C09C9180818D9390833197A2170E
:1001F000B307C1F7E42FF0E0EA50FF4F108286EF1B
:1002000090E00895AA9895B3282F207F9F70292BFE
:1002100025BBAB9A31E0932F9A95F1F7AB989AEB07
:100220009A95F1F795B3282F2295207F9F70292B5F
:1002300025BBAB9A3A95F1F7AB988150823018F410
:1002400080EA9FE002C080E991E00197F1F708950C
:10025000DF93CF9300D000D0CDB7DEB7282F862F05
:100260002093F4006093F30090E8998390EC9A83D4
:1002700094E99B8394ED9C838150FE01E20FF11D74
:100280009081890F0E9402010F900F900F900F90A4
:10029000CF91DF910895AA9A95B3282F207F9F7060
:1002A000292B25BBAB9A41E0942F9A95F1F7AB9897
:1002B00028EC30E0F9013197F1F795B38295807F12
:1002C0009F70982B95BBAB9A842F8A95F1F7AB98CA
:1002D000C9010197F1F78091F3008F5F8093F300DC
:1002E000813150F08091F4008F5F8093F40040934F
:1002F000F30061E00E942801089584B38C6084BB00
:1003000080E395E70197F1F784B3806F84BB82E3C4
:100310000E94020188E20E9402018CE00E94020118
:1003200081E00E94020181E061E00E94280181E0F9
:100330008093F3008093F40008951F93CF93DF938D
:10034000EC0110E003C01F5F0E944B01FE01E10FB2
:10035000F11D80818823B9F7DF91CF911F91089516
:1003600081E00E94020181E08093F3008093F40019
:1003700061E00E94280108950E94B00180E690E0AB
:100380000E949D0182E061E00E9428018FE690E0DA
:100390000E949D0180E29EE428EC30E0F901319753
:1003A000F1F70197D9F70E94B0018FE790E00E9422
:1003B0009D0182E061E00E9428018FE890E00E94A8
:1003C0009D0108950F931F93082F162F0E94B001CF
:1003D0008FE990E00E949D0182E061E00E94280187
:1003E000812F0E944B0188E50E944B01083509F4DA
:1003F0003FC0093520F4073509F06EC053C00935F8
:10040000E9F00A3509F068C086EA90E00E949D0193
:10041000C39A80E395E728EC30E0F9013197F1F7D2
:100420000197D9F7C398C29A80E797E128EC30E0AA
:10043000F9013197F1F70197D9F74DC08AEA90E0B9
:100440000E949D01C49A80E395E728EC30E0F90111
:100450003197F1F70197D9F7C498C29A80E797E1ED
:1004600028EC30E0F9013197F1F70197D9F733C063
:100470008EEA90E00E949D01C59A80E395E728EC02
:1004800030E0F9013197F1F70197D9F7C598C29A91
:1004900080E797E128EC30E0F9013197F1F7019717
:1004A000D9F719C082EB90E00E949D01C69A80E3C3
:1004B00095E728EC30E0F9013197F1F70197D9F78A
:1004C000C698C29A80E797E128EC30E0F9013197AD
:1004D000F1F70197D9F7C2981F910F9108950E94E3
:1004E000B00186EB90E00E949D0182E061E00E94F5
:1004F00028018DEB90E00E949D010E947A00982FC8
:100500008C538230D0F7892F08950E94B0018DEC72
:1005100090E00E949D0182E061E00E9428018AED46
:1005200090E00E949D010E947A0008950E94BC0103
:100530000E947A000895FF920F931F930E947D01FD
:1005400080E895E20E946400BB9ABC9ABD9ABE9A6C
:10055000BA9A0E949602F82E0E948502082F0E94E5
:100560006F028D33B1F70E947A00182F0E94B001FC
:1005700085EE90E00E949D0181E06BE00E942801E1
:100580008CEE90E00E949D0181E067E00E942801CE
:100590008FEE90E00E949D0181E067E00E942801BB
:1005A000812F90E00E94C6000E949D0111500E9480
:1005B0007A00833649F30E94B0018F2D602F0E948C
:1005C000E201C7CFAA1BBB1B51E107C0AA1FBB1F7B
:1005D000A617B70710F0A61BB70B881F991F5A95CF
:1005E000A9F780959095BC01CD01089597FB092E40
:1005F00007260AD077FD04D0E5DF06D000201AF4E4
:10060000709561957F4F0895F6F7909581959F4F6E
:10061000089597FB092E05260ED057FD04D014D05F
:100620000AD0001C38F450954095309521953F4FE5
:100630004F4F5F4F0895F6F79095809570956195AF
:100640007F4F8F4F9F4F0895A1E21A2EAA1BBB1B0D
:10065000FD010DC0AA1FBB1FEE1FFF1FA217B3078E
:10066000E407F50720F0A21BB30BE40BF50B661FA4
:10067000771F881F991F1A9469F760957095809568
:1006800090959B01AC01BD01CF010895F894FFCF77
:1006900057656C636F6D6520706C6561736500658F
:1006A0006E746572206472696E6B202E2E2E00436C
:1006B000414620354C45204D4F4320344C45005099
:1006C000505320334C452054454120324C45006462
:1006D00072696E6B3A00434F46004D4F43005050D5
:1006E00053005445410070726573733A00312D63B5
:1006F0006F6E7420322D63616E63656C00706C6583
:1007000061736520656E7465720074686520636F3F
:10071000756E743A00656E7465723A004C4500203F
:0607200020200001010091
:00000001FF
