:100000000C942A000C943F000C943F000C943F0089
:100010000C943F000C943F000C943F000C943F0064
:100020000C943F000C943F000C943F000C943F0054
:100030000C943F000C943F000C943F000C943F0044
:100040000C943F000C943F000C943F000C943F0034
:100050000C943F0011241FBECFE5D4E0DEBFCDBF1E
:1000600010E0A0E6B0E0EAE1F3E002C005900D92F6
:10007000A237B107D9F70E9429010C948B010C9487
:1000800000009C0140E050E060E271EA87E090E00F
:100090000E944E012150304086E880BD88E18AB937
:1000A00030BD29B908955D9BFECF8CB908955F9B43
:1000B000FECF8CB1089580EF84BB8FEF85BB089590
:1000C000DF93CF93CDB7DEB760970FB6F894DEBF5E
:1000D0000FBECDBFDE011196E1E6F0E080E10190B8
:1000E0000D928150E1F785B38F7085BB83B38F701C
:1000F0008F30C9F720E43CE9C9010197F1F783B3D8
:100100008F708F30C9F3C9010197F1F783B38F70F6
:100110008F3091F34FEE3FED2FEB9FE745BB83B35D
:100120008F708F3011F0E0E014C035BB83B38F7057
:100130008F3011F0E1E00DC025BB83B38F708F309D
:1001400011F0E2E006C095BB83B38F708F3031F3BE
:10015000E3E08E3011F480E009C08D3011F481E0CD
:1001600005C08B3011F083E001C082E0F0E0EE0FBB
:10017000FF1FEE0FFF1FE80FF11DEC0FFD1F818128
:1001800060960FB6F894DEBF0FBECDBFCF91DF9162
:1001900008952091600040E757E101C0292F80B306
:1001A00090E036E0969587953A95E1F7982F917013
:1001B00080FDF4CF222391F3CA010197F1F780B3B8
:1001C00090E026E0969587952A95E1F7982F917013
:1001D00080FDE4CF9093600083E60E945300089571
:1001E0000F931F93082F0E946000182F8C538230AA
:1001F000D0F7812F0E9453001D3361F4802F0E949D
:10020000530003C00E94C90001500023D9F785E6BE
:100210000E9453001F910F9108951F930E94600048
:10022000182F81538930D0F7812F0E945300812FDE
:1002300080531F9108951F930E946000182F8755C7
:100240008430D0F7812F0E945300812F85551F9154
:1002500008951F93CF93DF930E945B0080E895E29F
:100260000E9441008E98969A20E335E7C8ECD0E0D2
:1002700005C0CE010197F1F721503040211531051D
:10028000C1F70E941B01182F0E940D01819F802D34
:1002900011240E94F00020E335E7EBCF97FB092EF5
:1002A00005260ED057FD04D014D00AD0001C38F417
:1002B00050954095309521953F4F4F4F5F4F089592
:1002C000F6F790958095709561957F4F8F4F9F4F72
:1002D0000895A1E21A2EAA1BBB1BFD010DC0AA1F87
:1002E000BB1FEE1FFF1FA217B307E407F50720F09F
:1002F000A21BB30BE40BF50B661F771F881F991F1A
:100300001A9469F760957095809590959B01AC0162
:0A031000BD01CF010895F894FFCF5E
:10031A00013738395A34353659313233583C303D41
:02032A0057007A
:00000001FF
